:100D29004545452D53570052455354415552414E5F
:100D390054004269726979616E6900467269656435
:100D490052696365004E6F6F646C657300446F731D
:100D590061005061726F74746100436861706174FD
:100D6900690054656100436F66666565004A756987
:100D7900636500546F74616C20416D6F756E74000A
:0B0D89004E6F20422076616C75650003
:100E9B0002090000020B0000020D0000010F2301EC
:020EAB0008003D
:060EBF00E4F509F50A222A
:070EB800750900750A0C2208
:100E69007F80120EAE7F38120EAE7F01120EAE7F5A
:090E79000C120EAE7F06020EAE53
:0A0EAE008FA0C2B0120E02C2B222E1
:100E4E00AE12AF137C00120CD48E108F11EF243023
:010E5E00FF94
:0A0E5F008FA0D2B0120E02C2B22220
:060E0200C2B1D2B27F1460
:100E0800E4FDFCEFFBC3ED9BEC94005015E4FBFA0A
:100E18000BBB00010ABA04F8BBFBF50DBD00010CC1
:020E280080E167
:010E2A0022A5
:100E2B008B128A138914AB12AA13A914120CA9FFE3
:100E3B006010120E5F74012514F514E43513F513CD
:030E4B0080E4221E
:100D94008B128A138914AB12AA13A914120CA9FF7B
:100DA400602A050AE50A70020509120E5FD3E50AF6
:100DB400940DE5096480948040057F18120EAE748A
:0D0DC400012514F514E43513F51380CA223F
:100DD1007590F0120E697F85120EAE7BFF7A0D7948
:100DE10029120E2B7FC3120EAE7BFF7A0D793012C2
:100DF1000E2B7FC8120E827F01120EAE12080080E8
:010E0100FBF5
:10080000C290D293D292D29120942F7F20120E8246
:100810002094277BFF7A0D793B120D94E508700D2B
:100820007464250CF50CE4350BF50B80E37464253A
:100830000EF50EE4350DF50D80D620952F7F201294
:100840000E822095277BFF7A0D7944120D94E508DE
:10085000700D7450250CF50CE4350BF50B80E3742A
:1008600050250EF50EE4350DF50D80D620962F7F20
:1008700020120E822096277BFF7A0D794E120D945E
:10088000E508700D745A250CF50CE4350BF50B805A
:10089000E3745A250EF50EE4350DF50D80D620973C
:1008A000157F20120E8220970D7508017F2F120EE2
:1008B0005F750F2F80F0C291D293D292D290209484
:1008C0002F7F20120E822094277BFF7A0D795612FB
:1008D0000D94E508700D740F250CF50CE4350BF53F
:1008E0000B80E3740F250EF50EE4350DF50D80D663
:1008F00020952F7F20120E822095277BFF7A0D797D
:100900005B120D94E508700D7414250CF50CE4359C
:100910000BF50B80E37414250EF50EE4350DF50D83
:1009200080D620962F7F20120E822096277BFF7A7A
:100930000D7963120D94E508700D7419250CF50CF2
:10094000E4350BF50B80E37419250EF50EE4350D37
:10095000F50D80D62097157F20120E8220970D75F9
:1009600008017F78120E5F750F7880F0C292D293E3
:10097000D290D29120942F7F20120E822094277B38
:10098000FF7A0D796B120D94E508700D740A250C31
:10099000F50CE4350BF50B80E3740A250EF50EE437
:1009A000350DF50D80D620952F7F20120E822095D3
:1009B000277BFF7A0D796F120D94E508700D740C8A
:1009C000250CF50CE4350BF50B80E3740C250EF5C6
:1009D0000EE4350DF50D80D620962F7F20120E8265
:1009E0002096277BFF7A0D7976120D94E508700D1D
:1009F000740F250CF50CE4350BF50B80E3740F2513
:100A00000EF50EE4350DF50D80D62097157F2012DA
:100A10000E8220970D7508017F2D120E5F750F2D28
:100A200080F0C293D290D292D29120941D7F201256
:100A30000E82209415120EBF7F01120EAEE4F50D4A
:100A4000F50EF50BF50CF50880E82095327F2012A5
:100A50000E8220952A7F30120E5FE5087010AE0BD3
:100A6000AF0CFC7D0A120CC28E0B8F0C80E4AE0D15
:100A7000AF0E7C007D0A120CC28E0D8F0E80D3202B
:100A800096127F20120E8220960A7F3D120E5F1270
:100A90000B7880F32097157F20120E8220970D751A
:0D0AA00008017F2B120E5F750F2B80F022D6
:100E8200E4FEEEC39F5011E4FDFC0DBD00010CBC5D
:080E920002F8BDBCF50E80EA78
:010E9A002235
:100B7800120E69120EBF7F80120EAE7BFF7A0D79BE
:100B88007C120D947FC0120EAE120EBFE50FB42B6F
:100B98000DE50C250EFFE50B350DFE120AADE50F30
:100BA800B42D29D3E50C950EE50B950D400BE50CFE
:100BB800950EFFE50B950D800F7F2D120E5FC3E597
:100BC8000E950CFFE50D950BFE120AADE50FB42F3F
:100BD80024E50E450D6010AC0DAD0EAE0BAF0C123A
:100BE8000CD4120AAD800E7F01120EAE7BFF7A0D77
:100BF8007989120D94E50FB4780EAC0DAD0EAE0BDD
:100C0800AF0C120CC2120AADE50FB42307AF0CAE3D
:050C18000B120AAD22E1
:100AAD008E128F1385120B85130CE4F50DF50ED3F5
:100ABD00E513940FE512942740187C277D10120E34
:100ACD0054AE12AF137C277D10120CD48C128D13E3
:100ADD008015D3E51394E7E51294034026E51394AE
:100AED000FE5129427501CAE12AF137C037DE81254
:100AFD000E54AE12AF137C037DE8120CD48C128D04
:100B0D00138015D3E5139463E51294004020E5138B
:100B1D0094E7E512940350167D64120E4EAE12AF9B
:100B2D00137C007D64120CD48C128D138015D3E5CB
:100B3D00139409E51294004022E5139463E5129491
:100B4D000050187D0A120E4EAE12AF137C007D0AB6
:100B5D00120CD48C108D11E5118002E5132430FF99
:0B0B6D00120E5F7F8C120EAE020EB85D
:03000000020C1DD2
:0C0C1D00787FE4F6D8FD758114020C64A9
:100CA900BB010689828A83E0225002E722BBFE0249
:090CB900E32289828A83E493227C
:100CC200EF8DF0A4A8F0CF8CF0A428CE8DF0A42E46
:020CD200FE2200
:100CD400BC000BBE0029EF8DF084FFADF022E4CC04
:100CE400F875F008EF2FFFEE33FEEC33FCEE9DECCD
:100CF400984005FCEE9DFE0FD5F0E9E4CEFD22ED13
:100D0400F8F5F0EE8420D21CFEADF075F008EF2F5C
:100D1400FFED33FD4007985006D5F0F222C398FD4D
:050D24000FD5F0EA22EA
:100C2900020DD1E493A3F8E493A34003F68001F203
:100C390008DFF48029E493A3F85407240CC8C333CC
:100C4900C4540F4420C8834004F456800146F6DF9B
:100C5900E4800B0102040810204080900E9BE47E82
:100C6900019360BCA3FF543F30E509541FFEE49390
:100C7900A360010ECF54C025E060A840B8E493A357
:100C8900FAE493A3F8E493A3C8C582C8CAC583CA82
:100C9900F0A3C8C582C8CAC583CADFE9DEE780BE3A
:010EAD000044
:00000001FF
